:1000000033C000004CC000004AC0000048C00000DF
:1000100046C0000044C0000042C0000040C00000D4
:100020003EC000003CC000003AC0000054C00000C8
:1000300036C0000034C0000032C0000030C00000F4
:100040002EC000002CC000002AC0000028C0000004
:1000500026C0000024C0000022C0000020C0000014
:100060001EC000001CC0000011241FBECFEFD4E052
:10007000DEBFCDBF11E0A0E0B1E0ECE9F2E002C0EC
:1000800005900D92AA34B107D9F711E0AAE4B1E0C6
:1000900001C01D92A235B107E1F76FD0FDC0B0CF0E
:1000A000CF92DF92EF92FF92CF93DF937CD06B01E0
:1000B0007C01C0E0D1E0B701A601CE01AED02E9602
:1000C00081E0C634D807B9F7DF91CF91FF90EF9068
:1000D000DF90CF9008951F920F920FB60F921124C8
:1000E0002F933F934F935F936F937F938F939F9340
:1000F000AF93BF93EF93FF9380914E0190914F0187
:10010000A0915001B09151010196A11DB11D8093A4
:100110004E0190934F01A0935001B0935101C0DF65
:10012000FF91EF91BF91AF919F918F917F916F91CF
:100130005F914F913F912F910F900FBE0F901F90A5
:100140001895E1E8F0E0808188608083808181609B
:1001500080838FE891E0909389008093880082E00B
:1001600080936F0008958FEF84B915B887B918B8D8
:100170000895F9DFE6DF78940895FBDF10924E01D1
:1001800010924F01109250011092510160E37BE0F8
:1001900081E090E039D083B7816083BF889583B7D1
:1001A0008E7F83BFF8CF80914A0190914B01A0913F
:1001B0004C01B0914D010196A11DB11D80934A01E2
:1001C00090934B01A0934C01B0934D014091460197
:1001D000509147016091480170914901841795073A
:1001E000A607B70744F010924A0110924B011092F3
:1001F0004C0110924D0160914A0170914B01809128
:100200004C0190914D01089560934A0170934B0108
:1002100080934C0190934D0108950F931F93FC011F
:100220008485958581309105C9F4008111812281F1
:100230003381401751076207730759F522E030E018
:1002400035872487A085B1852C91028402C0880F50
:10025000991F0A94E2F7282B2C931BC00297C9F42C
:100260000481158126813781401751076207730782
:1002700081F481E090E095878487A085B1852C91F9
:10028000028402C0880F991F0A94E2F780958223A6
:0C0290008C931F910F910895F894FFCFFC
:10029C005046000024540000280000000100605467
:1002AC0000003462000028000100010070620000B0
:1002BC004470000028000200010080700000547E91
:1002CC000000280003000100907E0000648C0000F8
:0A02DC002800040001008051010019
:00000001FF
